{
  "contractName": "Pausable",
  "abi": [
    {
      "constant": true,
      "inputs": [],
      "name": "owner",
      "outputs": [
        {
          "name": "",
          "type": "address"
        }
      ],
      "payable": false,
      "stateMutability": "view",
      "type": "function"
    },
    {
      "constant": true,
      "inputs": [],
      "name": "running",
      "outputs": [
        {
          "name": "",
          "type": "bool"
        }
      ],
      "payable": false,
      "stateMutability": "view",
      "type": "function"
    },
    {
      "inputs": [],
      "payable": false,
      "stateMutability": "nonpayable",
      "type": "constructor"
    },
    {
      "constant": false,
      "inputs": [
        {
          "name": "onOff",
          "type": "bool"
        }
      ],
      "name": "runSwitch",
      "outputs": [
        {
          "name": "success",
          "type": "bool"
        }
      ],
      "payable": false,
      "stateMutability": "nonpayable",
      "type": "function"
    }
  ],
  "bytecode": "0x608060405234801561001057600080fd5b50336000806101000a81548173ffffffffffffffffffffffffffffffffffffffff021916908373ffffffffffffffffffffffffffffffffffffffff1602179055506001600060146101000a81548160ff0219169083151502179055506102768061007b6000396000f300608060405260043610610057576000357c0100000000000000000000000000000000000000000000000000000000900463ffffffff1680632dd970581461005c5780638da5cb5b146100a3578063d85bd526146100fa575b600080fd5b34801561006857600080fd5b50610089600480360381019080803515159060200190929190505050610129565b604051808215151515815260200191505060405180910390f35b3480156100af57600080fd5b506100b8610212565b604051808273ffffffffffffffffffffffffffffffffffffffff1673ffffffffffffffffffffffffffffffffffffffff16815260200191505060405180910390f35b34801561010657600080fd5b5061010f610237565b604051808215151515815260200191505060405180910390f35b60008060009054906101000a900473ffffffffffffffffffffffffffffffffffffffff1673ffffffffffffffffffffffffffffffffffffffff163373ffffffffffffffffffffffffffffffffffffffff161415156101ef576040517f08c379a000000000000000000000000000000000000000000000000000000000815260040180806020018281038252601b8152602001807f4f6e6c79206f776e65722063616e20657865637574652074686973000000000081525060200191505060405180910390fd5b81600060146101000a81548160ff02191690831515021790555060019050919050565b6000809054906101000a900473ffffffffffffffffffffffffffffffffffffffff1681565b600060149054906101000a900460ff16815600a165627a7a72305820756a95e2110ecec8d8f6af8c14fa3ffac6b70c39a82ee87fb846558906d846100029",
  "source": "pragma solidity ^0.4.6;\n\nimport \"./Owned.sol\";\n\ncontract Pausable is Owned {\n\n    bool public running;\n\n    modifier onlyIfRunning {require(running == true, \"cannot execute now\"); _;}\n\n    constructor()  public {\n        running = true;\n    }\n\n    function runSwitch(bool onOff) public onlyOwner returns(bool success) {\n        running = onOff;\n        return true;\n    }\n\n\n}",
  "sourcePath": "/home/mohanerra/ethereum-training/DAPPS/github/ethereumtraining-project2/contracts/Pausable.sol",
  "compiler": {
    "name": "solc",
    "version": "0.4.24+commit.e67f0147.Emscripten.clang"
  },
  "schemaVersion": "2.0.1",
  "updatedAt": "2018-09-15T04:57:49.391Z"
}