{
  "contractName": "Remittance",
  "abi": [
    {
      "constant": true,
      "inputs": [],
      "name": "passwordHash",
      "outputs": [
        {
          "name": "",
          "type": "bytes32"
        }
      ],
      "payable": false,
      "stateMutability": "view",
      "type": "function"
    },
    {
      "constant": true,
      "inputs": [],
      "name": "carolAddress",
      "outputs": [
        {
          "name": "",
          "type": "address"
        }
      ],
      "payable": false,
      "stateMutability": "view",
      "type": "function"
    },
    {
      "inputs": [
        {
          "name": "_passwordHash",
          "type": "bytes32"
        },
        {
          "name": "_carolAddress",
          "type": "address"
        }
      ],
      "payable": true,
      "stateMutability": "payable",
      "type": "constructor"
    },
    {
      "constant": false,
      "inputs": [
        {
          "name": "_bobPassword",
          "type": "string"
        },
        {
          "name": "_carolPassword",
          "type": "string"
        }
      ],
      "name": "remit",
      "outputs": [],
      "payable": true,
      "stateMutability": "payable",
      "type": "function"
    }
  ],
  "bytecode": "0x60806040526040516040806108ad833981018060405281019080805190602001909291908051906020019092919050505033600260006101000a81548173ffffffffffffffffffffffffffffffffffffffff021916908373ffffffffffffffffffffffffffffffffffffffff16021790555080600160006101000a81548173ffffffffffffffffffffffffffffffffffffffff021916908373ffffffffffffffffffffffffffffffffffffffff1602179055506000602060ff1611151561012e576040517f08c379a00000000000000000000000000000000000000000000000000000000081526004018080602001828103825260168152602001807f70617373776f7264206861736820697320656d7074790000000000000000000081525060200191505060405180910390fd5b6000341115156101cc576040517f08c379a00000000000000000000000000000000000000000000000000000000081526004018080602001828103825260248152602001807f696e76616c696420616d6f756e7420746f207365656420696e746f20636f6e7481526020017f726163740000000000000000000000000000000000000000000000000000000081525060400191505060405180910390fd5b81600081600019169055503073ffffffffffffffffffffffffffffffffffffffff166108fc349081150290604051600060405180830381858888f1935050505015801561021d573d6000803e3d6000fd5b50505061067e8061022f6000396000f300608060405260043610610057576000357c0100000000000000000000000000000000000000000000000000000000900463ffffffff1680632f12313f1461005c578063e69336a01461008f578063fbddd644146100e6575b600080fd5b34801561006857600080fd5b50610071610188565b60405180826000191660001916815260200191505060405180910390f35b34801561009b57600080fd5b506100a461018e565b604051808273ffffffffffffffffffffffffffffffffffffffff1673ffffffffffffffffffffffffffffffffffffffff16815260200191505060405180910390f35b610186600480360381019080803590602001908201803590602001908080601f0160208091040260200160405190810160405280939291908181526020018383808284378201915050505050509192919290803590602001908201803590602001908080601f01602080910402602001604051908101604052809392919081815260200183838082843782019150505050505091929192905050506101b4565b005b60005481565b600160009054906101000a900473ffffffffffffffffffffffffffffffffffffffff1681565b6000600160009054906101000a900473ffffffffffffffffffffffffffffffffffffffff1673ffffffffffffffffffffffffffffffffffffffff163373ffffffffffffffffffffffffffffffffffffffff161415156102a1576040517f08c379a00000000000000000000000000000000000000000000000000000000081526004018080602001828103825260278152602001807f596f7520617265206e6f7420617574686f72697a656420746f2065786563757481526020017f652072656d69740000000000000000000000000000000000000000000000000081525060400191505060405180910390fd5b60003073ffffffffffffffffffffffffffffffffffffffff1631111515610356576040517f08c379a000000000000000000000000000000000000000000000000000000000815260040180806020018281038252602a8152602001807f636f6e747261637420646f65736e74206861766520656e6f7567682066756e6481526020017f7320746f2072656d69740000000000000000000000000000000000000000000081525060400191505060405180910390fd5b600083511115156103cf576040517f08c379a00000000000000000000000000000000000000000000000000000000081526004018080602001828103825260158152602001807f626f622070617373776f726420697320656d707479000000000000000000000081525060200191505060405180910390fd5b60008251111515610448576040517f08c379a00000000000000000000000000000000000000000000000000000000081526004018080602001828103825260178152602001807f6361726f6c2070617373776f726420697320656d70747900000000000000000081525060200191505060405180910390fd5b82826040516020018083805190602001908083835b602083101515610482578051825260208201915060208101905060208303925061045d565b6001836020036101000a03801982511681845116808217855250505050505090500182805190602001908083835b6020831015156104d557805182526020820191506020810190506020830392506104b0565b6001836020036101000a038019825116818451168082178552505050505050905001925050506040516020818303038152906040526040518082805190602001908083835b60208310151561053f578051825260208201915060208101905060208303925061051a565b6001836020036101000a038019825116818451168082178552505050505050905001915050604051809103902090506000546000191681600019161415156105ef576040517f08c379a000000000000000000000000000000000000000000000000000000000815260040180806020018281038252601d8152602001807f7061737365642070617373776f72647320646f65736e74206d6174636800000081525060200191505060405180910390fd5b3373ffffffffffffffffffffffffffffffffffffffff166108fc3073ffffffffffffffffffffffffffffffffffffffff16319081150290604051600060405180830381858888f1935050505015801561064c573d6000803e3d6000fd5b505050505600a165627a7a7230582070cbb77e5fdef30d63fda04f3e4c226de2bc841e1b62043f59fdf73cb76a83f00029",
  "source": "pragma solidity ^0.4.6;\n\ncontract Remittance {\n\n    bytes32 public passwordHash;\n    address public carolAddress;\n\n    address owner;\n\n    constructor(bytes32 _passwordHash, address _carolAddress) public payable {\n        owner = msg.sender;\n        carolAddress = _carolAddress;\n        require(_passwordHash.length > 0, \"password hash is empty\");\n        require(msg.value > 0, \"invalid amount to seed into contract\");\n        passwordHash = _passwordHash;\n\n        address(this).transfer(msg.value);\n    }\n\n    function remit(string _bobPassword, string _carolPassword) public payable {\n        require(msg.sender == carolAddress, \"You are not authorized to execute remit\");\n        require(address(this).balance > 0, \"contract doesnt have enough funds to remit\");\n        require(bytes(_bobPassword).length > 0, \"bob password is empty\");\n        require(bytes(_carolPassword).length > 0, \"carol password is empty\");\n        bytes32 computedPasswordsHash = keccak256(abi.encodePacked(_bobPassword, _carolPassword));\n        require(computedPasswordsHash == passwordHash, \"passed passwords doesnt match\");\n\n        msg.sender.transfer(address(this).balance);\n    }\n\n}\n",
  "sourcePath": "/home/mohanerra/ethereum-training/DAPPS/github/ethereumtraining-project2/contracts/Remittance.sol",
  "compiler": {
    "name": "solc",
    "version": "0.4.24+commit.e67f0147.Emscripten.clang"
  },
  "schemaVersion": "2.0.1",
  "updatedAt": "2018-09-10T05:21:38.239Z"
}