{
  "contractName": "Remittance",
  "abi": [
    {
      "constant": false,
      "inputs": [
        {
          "name": "onOff",
          "type": "bool"
        }
      ],
      "name": "runSwitch",
      "outputs": [
        {
          "name": "success",
          "type": "bool"
        }
      ],
      "payable": false,
      "stateMutability": "nonpayable",
      "type": "function"
    },
    {
      "constant": true,
      "inputs": [],
      "name": "owner",
      "outputs": [
        {
          "name": "",
          "type": "address"
        }
      ],
      "payable": false,
      "stateMutability": "view",
      "type": "function"
    },
    {
      "constant": true,
      "inputs": [],
      "name": "running",
      "outputs": [
        {
          "name": "",
          "type": "bool"
        }
      ],
      "payable": false,
      "stateMutability": "view",
      "type": "function"
    },
    {
      "constant": true,
      "inputs": [
        {
          "name": "",
          "type": "address"
        }
      ],
      "name": "remittanceStructs",
      "outputs": [
        {
          "name": "amount",
          "type": "uint256"
        },
        {
          "name": "paswordHash",
          "type": "bytes32"
        }
      ],
      "payable": false,
      "stateMutability": "view",
      "type": "function"
    },
    {
      "inputs": [],
      "payable": false,
      "stateMutability": "nonpayable",
      "type": "constructor"
    },
    {
      "anonymous": false,
      "inputs": [
        {
          "indexed": false,
          "name": "sender",
          "type": "address"
        },
        {
          "indexed": false,
          "name": "hash",
          "type": "bytes32"
        }
      ],
      "name": "LogHash",
      "type": "event"
    },
    {
      "anonymous": false,
      "inputs": [
        {
          "indexed": false,
          "name": "sender",
          "type": "address"
        },
        {
          "indexed": false,
          "name": "amount",
          "type": "uint256"
        }
      ],
      "name": "LogAmount",
      "type": "event"
    },
    {
      "constant": false,
      "inputs": [
        {
          "name": "_passwordHash",
          "type": "bytes32"
        },
        {
          "name": "_remittee",
          "type": "address"
        }
      ],
      "name": "addRemittee",
      "outputs": [],
      "payable": true,
      "stateMutability": "payable",
      "type": "function"
    },
    {
      "constant": false,
      "inputs": [
        {
          "name": "receiverPassword",
          "type": "string"
        }
      ],
      "name": "remit",
      "outputs": [],
      "payable": false,
      "stateMutability": "nonpayable",
      "type": "function"
    },
    {
      "constant": true,
      "inputs": [
        {
          "name": "receiverAddress",
          "type": "address"
        },
        {
          "name": "receiverPassword",
          "type": "string"
        }
      ],
      "name": "generateHash",
      "outputs": [
        {
          "name": "hash",
          "type": "bytes32"
        }
      ],
      "payable": false,
      "stateMutability": "pure",
      "type": "function"
    },
    {
      "constant": true,
      "inputs": [
        {
          "name": "remittee",
          "type": "address"
        }
      ],
      "name": "getRemitteesAmount",
      "outputs": [
        {
          "name": "amt",
          "type": "uint256"
        }
      ],
      "payable": false,
      "stateMutability": "view",
      "type": "function"
    }
  ],
  "bytecode": "0x608060405234801561001057600080fd5b50336000806101000a81548173ffffffffffffffffffffffffffffffffffffffff021916908373ffffffffffffffffffffffffffffffffffffffff1602179055506001600060146101000a81548160ff021916908315150217905550610fd08061007b6000396000f30060806040526004361061008e576000357c0100000000000000000000000000000000000000000000000000000000900463ffffffff16806305bc0489146100935780632dd97058146100fc5780634f07f057146101435780636a2da7c0146101875780638c156213146101de5780638da5cb5b14610283578063d85bd526146102da578063f11af09714610309575b600080fd5b34801561009f57600080fd5b506100fa600480360381019080803590602001908201803590602001908080601f016020809104026020016040519081016040528093929190818152602001838380828437820191505050505050919291929050505061036f565b005b34801561010857600080fd5b50610129600480360381019080803515159060200190929190505050610940565b604051808215151515815260200191505060405180910390f35b6101856004803603810190808035600019169060200190929190803573ffffffffffffffffffffffffffffffffffffffff169060200190929190505050610a29565b005b34801561019357600080fd5b506101c8600480360381019080803573ffffffffffffffffffffffffffffffffffffffff169060200190929190505050610cff565b6040518082815260200191505060405180910390f35b3480156101ea57600080fd5b50610265600480360381019080803573ffffffffffffffffffffffffffffffffffffffff169060200190929190803590602001908201803590602001908080601f0160208091040260200160405190810160405280939291908181526020018383808284378201915050505050509192919290505050610e0f565b60405180826000191660001916815260200191505060405180910390f35b34801561028f57600080fd5b50610298610f2b565b604051808273ffffffffffffffffffffffffffffffffffffffff1673ffffffffffffffffffffffffffffffffffffffff16815260200191505060405180910390f35b3480156102e657600080fd5b506102ef610f50565b604051808215151515815260200191505060405180910390f35b34801561031557600080fd5b5061034a600480360381019080803573ffffffffffffffffffffffffffffffffffffffff169060200190929190505050610f63565b6040518083815260200182600019166000191681526020019250505060405180910390f35b600060011515600060149054906101000a900460ff1615151415156103fc576040517f08c379a00000000000000000000000000000000000000000000000000000000081526004018080602001828103825260128152602001807f63616e6e6f742065786563757465206e6f77000000000000000000000000000081525060200191505060405180910390fd5b6000600160003373ffffffffffffffffffffffffffffffffffffffff1673ffffffffffffffffffffffffffffffffffffffff16815260200190815260200160002050602060ff161115156104de576040517f08c379a00000000000000000000000000000000000000000000000000000000081526004018080602001828103825260278152602001807f596f7520617265206e6f7420617574686f72697a656420746f2065786563757481526020017f652072656d69740000000000000000000000000000000000000000000000000081525060400191505060405180910390fd5b6000600160003373ffffffffffffffffffffffffffffffffffffffff1673ffffffffffffffffffffffffffffffffffffffff168152602001908152602001600020600001541115156105be576040517f08c379a00000000000000000000000000000000000000000000000000000000081526004018080602001828103825260238152602001807f596f7520646f6e74206861766520656e6f7567682066756e647320746f20726581526020017f6d6974000000000000000000000000000000000000000000000000000000000081525060400191505060405180910390fd5b3382604051602001808373ffffffffffffffffffffffffffffffffffffffff1673ffffffffffffffffffffffffffffffffffffffff166c0100000000000000000000000002815260140182805190602001908083835b6020831015156106395780518252602082019150602081019050602083039250610614565b6001836020036101000a038019825116818451168082178552505050505050905001925050506040516020818303038152906040526040518082805190602001908083835b6020831015156106a3578051825260208201915060208101905060208303925061067e565b6001836020036101000a038019825116818451168082178552505050505050905001915050604051809103902090507fe855c6d6123b93979d431843a4947e8c9949a4424f3716a83f9685a8442be7f83382604051808373ffffffffffffffffffffffffffffffffffffffff1673ffffffffffffffffffffffffffffffffffffffff16815260200182600019166000191681526020019250505060405180910390a1600160003373ffffffffffffffffffffffffffffffffffffffff1673ffffffffffffffffffffffffffffffffffffffff16815260200190815260200160002060010154600019168160001916141515610806576040517f08c379a000000000000000000000000000000000000000000000000000000000815260040180806020018281038252601d8152602001807f7061737365642070617373776f72647320646f65736e74206d6174636800000081525060200191505060405180910390fd5b7f836d865b6c3badfb4c54c0b6748af49afafb7700de23aa301b11663eb4e48e1633600160003373ffffffffffffffffffffffffffffffffffffffff1673ffffffffffffffffffffffffffffffffffffffff16815260200190815260200160002060000154604051808373ffffffffffffffffffffffffffffffffffffffff1673ffffffffffffffffffffffffffffffffffffffff1681526020018281526020019250505060405180910390a13373ffffffffffffffffffffffffffffffffffffffff166108fc600160003373ffffffffffffffffffffffffffffffffffffffff1673ffffffffffffffffffffffffffffffffffffffff168152602001908152602001600020600001549081150290604051600060405180830381858888f1935050505015801561093b573d6000803e3d6000fd5b505050565b60008060009054906101000a900473ffffffffffffffffffffffffffffffffffffffff1673ffffffffffffffffffffffffffffffffffffffff163373ffffffffffffffffffffffffffffffffffffffff16141515610a06576040517f08c379a000000000000000000000000000000000000000000000000000000000815260040180806020018281038252601b8152602001807f4f6e6c79206f776e65722063616e20657865637574652074686973000000000081525060200191505060405180910390fd5b81600060146101000a81548160ff02191690831515021790555060019050919050565b610a31610f87565b6000809054906101000a900473ffffffffffffffffffffffffffffffffffffffff1673ffffffffffffffffffffffffffffffffffffffff163373ffffffffffffffffffffffffffffffffffffffff16141515610af5576040517f08c379a000000000000000000000000000000000000000000000000000000000815260040180806020018281038252601b8152602001807f4f6e6c79206f776e65722063616e20657865637574652074686973000000000081525060200191505060405180910390fd5b6000602060ff16111515610b71576040517f08c379a00000000000000000000000000000000000000000000000000000000081526004018080602001828103825260168152602001807f70617373776f7264206861736820697320656d7074790000000000000000000081525060200191505060405180910390fd5b600034111515610c0f576040517f08c379a00000000000000000000000000000000000000000000000000000000081526004018080602001828103825260248152602001807f696e76616c696420616d6f756e7420746f207365656420696e746f20636f6e7481526020017f726163740000000000000000000000000000000000000000000000000000000081525060400191505060405180910390fd5b7fe855c6d6123b93979d431843a4947e8c9949a4424f3716a83f9685a8442be7f88284604051808373ffffffffffffffffffffffffffffffffffffffff1673ffffffffffffffffffffffffffffffffffffffff16815260200182600019166000191681526020019250505060405180910390a160408051908101604052803481526020018460001916815250905080600160008473ffffffffffffffffffffffffffffffffffffffff1673ffffffffffffffffffffffffffffffffffffffff1681526020019081526020016000206000820151816000015560208201518160010190600019169055905050505050565b60008060009054906101000a900473ffffffffffffffffffffffffffffffffffffffff1673ffffffffffffffffffffffffffffffffffffffff163373ffffffffffffffffffffffffffffffffffffffff16141515610dc5576040517f08c379a000000000000000000000000000000000000000000000000000000000815260040180806020018281038252601b8152602001807f4f6e6c79206f776e65722063616e20657865637574652074686973000000000081525060200191505060405180910390fd5b600160008373ffffffffffffffffffffffffffffffffffffffff1673ffffffffffffffffffffffffffffffffffffffff168152602001908152602001600020600001549050919050565b60008282604051602001808373ffffffffffffffffffffffffffffffffffffffff1673ffffffffffffffffffffffffffffffffffffffff166c0100000000000000000000000002815260140182805190602001908083835b602083101515610e8c5780518252602082019150602081019050602083039250610e67565b6001836020036101000a038019825116818451168082178552505050505050905001925050506040516020818303038152906040526040518082805190602001908083835b602083101515610ef65780518252602082019150602081019050602083039250610ed1565b6001836020036101000a0380198251168184511680821785525050505050509050019150506040518091039020905092915050565b6000809054906101000a900473ffffffffffffffffffffffffffffffffffffffff1681565b600060149054906101000a900460ff1681565b60016020528060005260406000206000915090508060000154908060010154905082565b6040805190810160405280600081526020016000801916815250905600a165627a7a72305820dd40f390d298a4be9526951a5dde45aa689f7ac6318528d119cfc5a940d502a70029",
  "source": "pragma solidity ^0.4.6;\n\nimport \"./Pausable.sol\";\n\ncontract Remittance is Pausable{\n\n    // bytes32 public passwordHash;\n    // address public carolAddress;\n\n    // bytes32 public computedPasswordsHash;\n\n    struct RemittanceStruct {\n        uint amount;\n        bytes32 paswordHash;\n    }\n\n    mapping(address=>RemittanceStruct) public remittanceStructs;\n\n    // address owner;\n\n    event LogHash(address sender, bytes32 hash);\n    event LogAmount(address sender, uint amount);\n\n\n    // constructor(bytes32 _passwordHash, address _carolAddress) public payable {\n    //     owner = msg.sender;\n    //     carolAddress = _carolAddress;\n    //     require(_passwordHash.length > 0, \"password hash is empty\");\n    //     require(msg.value > 0, \"invalid amount to seed into contract\");\n    //     passwordHash = _passwordHash;\n    //     // emit LogHash(msg.sender, passwordHash);\n    //     address(this).transfer(msg.value);\n    // }\n\n    constructor() public {\n    }\n\n    function addRemittee(bytes32 _passwordHash, address _remittee) public onlyOwner payable {\n        require(_passwordHash.length > 0, \"password hash is empty\");\n        require(msg.value > 0, \"invalid amount to seed into contract\");\n        emit LogHash(_remittee, _passwordHash);\n        RemittanceStruct memory remittanceStruct = RemittanceStruct(msg.value, _passwordHash);\n        remittanceStructs[_remittee] = remittanceStruct;\n        // address(this).transfer(msg.value);\n    }\n\n    // function remit(string _bobPassword, string _carolPassword) public {\n    //     require(msg.sender == carolAddress, \"You are not authorized to execute remit\");\n    //     require(address(this).balance > 0, \"contract doesnt have enough funds to remit\");\n    //     require(bytes(_bobPassword).length > 0, \"bob password is empty\");\n    //     // require(bytes(_carolPassword).length > 0, \"carol password is empty\");\n    //     emit LogHash(msg.sender, passwordHash);\n    //     computedPasswordsHash = keccak256(abi.encodePacked(_bobPassword, _carolPassword));\n    //     emit LogHash(msg.sender, computedPasswordsHash);\n    //     // require(computedPasswordsHash == passwordHash, \"passed passwords doesnt match\");\n\n    //     msg.sender.transfer(address(this).balance);\n    // }\n\n    function remit(string receiverPassword) public onlyIfRunning{\n        require(remittanceStructs[msg.sender].paswordHash.length > 0, \"You are not authorized to execute remit\");\n        require(remittanceStructs[msg.sender].amount > 0, \"You dont have enough funds to remit\");\n\n        bytes32 computedPasswordsHash = keccak256(abi.encodePacked(msg.sender, receiverPassword));\n        emit LogHash(msg.sender, computedPasswordsHash);\n        require(computedPasswordsHash == remittanceStructs[msg.sender].paswordHash, \"passed passwords doesnt match\");\n\n        emit LogAmount(msg.sender, remittanceStructs[msg.sender].amount);\n\n        msg.sender.transfer(remittanceStructs[msg.sender].amount);\n    }\n\n    function generateHash(address receiverAddress, string receiverPassword) public pure returns(bytes32 hash) {\n        return keccak256(abi.encodePacked(receiverAddress, receiverPassword));\n    }\n\n    //didnt know how to read structs in javascript tests. Hence creating a helper function to get the values from struct\n    function getRemitteesAmount(address remittee) public view onlyOwner returns(uint amt) {\n        return remittanceStructs[remittee].amount;\n    }\n\n}\n",
  "sourcePath": "/home/mohanerra/ethereum-training/DAPPS/github/ethereumtraining-project2/contracts/Remittance.sol",
  "compiler": {
    "name": "solc",
    "version": "0.4.24+commit.e67f0147.Emscripten.clang"
  },
  "schemaVersion": "2.0.1",
  "updatedAt": "2018-09-14T16:10:08.068Z"
}