{
  "contractName": "Remittance",
  "abi": [
    {
      "constant": true,
      "inputs": [],
      "name": "bobPasswordHash",
      "outputs": [
        {
          "name": "",
          "type": "bytes32"
        }
      ],
      "payable": false,
      "stateMutability": "view",
      "type": "function"
    },
    {
      "constant": true,
      "inputs": [],
      "name": "carolPasswordHash",
      "outputs": [
        {
          "name": "",
          "type": "bytes32"
        }
      ],
      "payable": false,
      "stateMutability": "view",
      "type": "function"
    },
    {
      "inputs": [
        {
          "name": "_bobPasswordHash",
          "type": "bytes32"
        },
        {
          "name": "_carolPasswordHash",
          "type": "bytes32"
        }
      ],
      "payable": true,
      "stateMutability": "payable",
      "type": "constructor"
    },
    {
      "constant": false,
      "inputs": [
        {
          "name": "_bobPassword",
          "type": "string"
        },
        {
          "name": "_carolPassword",
          "type": "string"
        }
      ],
      "name": "remit",
      "outputs": [],
      "payable": true,
      "stateMutability": "payable",
      "type": "function"
    }
  ],
  "bytecode": "0x6080604052604051604080610988833981018060405281019080805190602001909291908051906020019092919050505033600360006101000a81548173ffffffffffffffffffffffffffffffffffffffff021916908373ffffffffffffffffffffffffffffffffffffffff1602179055506000602060ff161115156100ed576040517f08c379a00000000000000000000000000000000000000000000000000000000081526004018080602001828103825260158152602001807f626f622070617373776f726420697320656d707479000000000000000000000081525060200191505060405180910390fd5b6000602060ff16111515610169576040517f08c379a00000000000000000000000000000000000000000000000000000000081526004018080602001828103825260178152602001807f6361726f6c2070617373776f726420697320656d70747900000000000000000081525060200191505060405180910390fd5b600034111515610207576040517f08c379a00000000000000000000000000000000000000000000000000000000081526004018080602001828103825260248152602001807f696e76616c696420616d6f756e7420746f207365656420696e746f20636f6e7481526020017f726163740000000000000000000000000000000000000000000000000000000081525060400191505060405180910390fd5b816000816000191690555080600181600019169055506000546001546040516020018083600019166000191681526020018260001916600019168152602001925050506040516020818303038152906040526040518082805190602001908083835b60208310151561028e5780518252602082019150602081019050602083039250610269565b6001836020036101000a0380198251168184511680821785525050505050509050019150506040518091039020600281600019169055503073ffffffffffffffffffffffffffffffffffffffff166108fc349081150290604051600060405180830381858888f1935050505015801561030b573d6000803e3d6000fd5b50505061066b8061031d6000396000f300608060405260043610610057576000357c0100000000000000000000000000000000000000000000000000000000900463ffffffff16806326f0bb481461005c578063a2081acc1461008f578063fbddd644146100c2575b600080fd5b34801561006857600080fd5b50610071610164565b60405180826000191660001916815260200191505060405180910390f35b34801561009b57600080fd5b506100a461016a565b60405180826000191660001916815260200191505060405180910390f35b610162600480360381019080803590602001908201803590602001908080601f0160208091040260200160405190810160405280939291908181526020018383808284378201915050505050509192919290803590602001908201803590602001908080601f0160208091040260200160405190810160405280939291908181526020018383808284378201915050505050509192919290505050610170565b005b60005481565b60015481565b6000806000803073ffffffffffffffffffffffffffffffffffffffff1631111515610229576040517f08c379a000000000000000000000000000000000000000000000000000000000815260040180806020018281038252602a8152602001807f636f6e747261637420646f65736e74206861766520656e6f7567682066756e6481526020017f7320746f2072656d69740000000000000000000000000000000000000000000081525060400191505060405180910390fd5b600085511115156102a2576040517f08c379a00000000000000000000000000000000000000000000000000000000081526004018080602001828103825260158152602001807f626f622070617373776f726420697320656d707479000000000000000000000081525060200191505060405180910390fd5b6000845111151561031b576040517f08c379a00000000000000000000000000000000000000000000000000000000081526004018080602001828103825260178152602001807f6361726f6c2070617373776f726420697320656d70747900000000000000000081525060200191505060405180910390fd5b846040516020018082805190602001908083835b602083101515610354578051825260208201915060208101905060208303925061032f565b6001836020036101000a0380198251168184511680821785525050505050509050019150506040516020818303038152906040526040518082805190602001908083835b6020831015156103bd5780518252602082019150602081019050602083039250610398565b6001836020036101000a03801982511681845116808217855250505050505090500191505060405180910390209250836040516020018082805190602001908083835b6020831015156104255780518252602082019150602081019050602083039250610400565b6001836020036101000a0380198251168184511680821785525050505050509050019150506040516020818303038152906040526040518082805190602001908083835b60208310151561048e5780518252602082019150602081019050602083039250610469565b6001836020036101000a0380198251168184511680821785525050505050509050019150506040518091039020915082826040516020018083600019166000191681526020018260001916600019168152602001925050506040516020818303038152906040526040518082805190602001908083835b60208310151561052a5780518252602082019150602081019050602083039250610505565b6001836020036101000a038019825116818451168082178552505050505050905001915050604051809103902090506002546000191681600019161415156105da576040517f08c379a000000000000000000000000000000000000000000000000000000000815260040180806020018281038252601d8152602001807f7061737365642070617373776f72647320646f65736e74206d6174636800000081525060200191505060405180910390fd5b3373ffffffffffffffffffffffffffffffffffffffff166108fc3073ffffffffffffffffffffffffffffffffffffffff16319081150290604051600060405180830381858888f19350505050158015610637573d6000803e3d6000fd5b5050505050505600a165627a7a72305820a8ccb0cfb22196aacc228007091a5d9aae5a78ed19b571020802256925583e5d0029",
  "source": "pragma solidity ^0.4.6;\n\ncontract Remittance {\n\n    bytes32 public bobPasswordHash;\n    bytes32 public carolPasswordHash;\n    bytes32 private passwordHash;\n    // bytes32 public computedHash;\n\n    address owner;\n\n    constructor(bytes32 _bobPasswordHash, bytes32 _carolPasswordHash) public payable {\n        owner = msg.sender;\n        require(_bobPasswordHash.length > 0, \"bob password is empty\");\n        require(_carolPasswordHash.length > 0, \"carol password is empty\");\n        require(msg.value > 0, \"invalid amount to seed into contract\");\n        bobPasswordHash = _bobPasswordHash;\n        carolPasswordHash = _carolPasswordHash;\n        passwordHash = keccak256(abi.encodePacked(bobPasswordHash, carolPasswordHash));\n\n        address(this).transfer(msg.value);\n    }\n\n    function remit(string _bobPassword, string _carolPassword) public payable {\n        require(address(this).balance > 0, \"contract doesnt have enough funds to remit\");\n        require(bytes(_bobPassword).length > 0, \"bob password is empty\");\n        require(bytes(_carolPassword).length > 0, \"carol password is empty\");\n        bytes32 _bobPasswordHash = keccak256(abi.encodePacked(_bobPassword));\n        bytes32 _carolPasswordHash = keccak256(abi.encodePacked(_carolPassword));\n        bytes32 passedPasswordsHash = keccak256(abi.encodePacked(_bobPasswordHash, _carolPasswordHash));\n        // computedHash = passedPasswordsHash;\n        require(passedPasswordsHash == passwordHash, \"passed passwords doesnt match\");\n\n        msg.sender.transfer(address(this).balance);\n    }\n\n    // function computeHash(string _bobPassword, string _carolPassword) public pure returns(bytes32 hash) {\n    //     bytes32 _bobPasswordHash = keccak256(abi.encodePacked(_bobPassword));\n    //     bytes32 _carolPasswordHash = keccak256(abi.encodePacked(_carolPassword));\n    //     bytes32 passedPasswordsHash = keccak256(abi.encodePacked(_bobPasswordHash, _carolPasswordHash));\n    //     return passedPasswordsHash;\n    // }\n\n    // function getPasswordHash() public view returns (bytes32 hash){\n    //     return passwordHash;\n    // }\n\n}\n",
  "sourcePath": "/home/mohanerra/ethereum-training/DAPPS/github/ethereumtraining-project2/contracts/Remittance.sol",
  "compiler": {
    "name": "solc",
    "version": "0.4.24+commit.e67f0147.Emscripten.clang"
  },
  "schemaVersion": "2.0.1",
  "updatedAt": "2018-09-06T06:36:21.374Z"
}