{
  "contractName": "Remittance",
  "abi": [
    {
      "inputs": [
        {
          "name": "_bobPassword",
          "type": "string"
        },
        {
          "name": "_carolPassword",
          "type": "string"
        }
      ],
      "payable": true,
      "stateMutability": "payable",
      "type": "constructor"
    },
    {
      "constant": false,
      "inputs": [
        {
          "name": "_bobPassword",
          "type": "string"
        },
        {
          "name": "_carolPassword",
          "type": "string"
        }
      ],
      "name": "remit",
      "outputs": [],
      "payable": true,
      "stateMutability": "payable",
      "type": "function"
    }
  ],
  "bytecode": "0x608060405260405161092c38038061092c833981018060405281019080805182019291906020018051820192919050505033600360006101000a81548173ffffffffffffffffffffffffffffffffffffffff021916908373ffffffffffffffffffffffffffffffffffffffff160217905550600082511115156100ea576040517f08c379a00000000000000000000000000000000000000000000000000000000081526004018080602001828103825260158152602001807f626f622070617373776f726420697320656d707479000000000000000000000081525060200191505060405180910390fd5b60008151111515610163576040517f08c379a00000000000000000000000000000000000000000000000000000000081526004018080602001828103825260178152602001807f6361726f6c2070617373776f726420697320656d70747900000000000000000081525060200191505060405180910390fd5b600034111515610201576040517f08c379a00000000000000000000000000000000000000000000000000000000081526004018080602001828103825260248152602001807f696e76616c696420616d6f756e7420746f207365656420696e746f20636f6e7481526020017f726163740000000000000000000000000000000000000000000000000000000081525060400191505060405180910390fd5b81600090805190602001906102179291906103b2565b50806001908051906020019061022e9291906103b2565b508160016040516020018083805190602001908083835b60208310151561026a5780518252602082019150602081019050602083039250610245565b6001836020036101000a038019825116818451168082178552505050505050905001828054600181600116156101000203166002900480156102e35780601f106102c15761010080835404028352918201916102e3565b820191906000526020600020905b8154815290600101906020018083116102cf575b5050925050506040516020818303038152906040526040518082805190602001908083835b60208310151561032d5780518252602082019150602081019050602083039250610308565b6001836020036101000a0380198251168184511680821785525050505050509050019150506040518091039020600281600019169055503073ffffffffffffffffffffffffffffffffffffffff166108fc349081150290604051600060405180830381858888f193505050501580156103aa573d6000803e3d6000fd5b505050610457565b828054600181600116156101000203166002900490600052602060002090601f016020900481019282601f106103f357805160ff1916838001178555610421565b82800160010185558215610421579182015b82811115610420578251825591602001919060010190610405565b5b50905061042e9190610432565b5090565b61045491905b80821115610450576000816000905550600101610438565b5090565b90565b6104c6806104666000396000f300608060405260043610610041576000357c0100000000000000000000000000000000000000000000000000000000900463ffffffff168063fbddd64414610046575b600080fd5b6100e6600480360381019080803590602001908201803590602001908080601f0160208091040260200160405190810160405280939291908181526020018383808284378201915050505050509192919290803590602001908201803590602001908080601f01602080910402602001604051908101604052809392919081815260200183838082843782019150505050505091929192905050506100e8565b005b6000803073ffffffffffffffffffffffffffffffffffffffff163111151561019e576040517f08c379a000000000000000000000000000000000000000000000000000000000815260040180806020018281038252602a8152602001807f636f6e747261637420646f65736e74206861766520656e6f7567682066756e6481526020017f7320746f2072656d69740000000000000000000000000000000000000000000081525060400191505060405180910390fd5b60008351111515610217576040517f08c379a00000000000000000000000000000000000000000000000000000000081526004018080602001828103825260158152602001807f626f622070617373776f726420697320656d707479000000000000000000000081525060200191505060405180910390fd5b60008251111515610290576040517f08c379a00000000000000000000000000000000000000000000000000000000081526004018080602001828103825260178152602001807f6361726f6c2070617373776f726420697320656d70747900000000000000000081525060200191505060405180910390fd5b82826040516020018083805190602001908083835b6020831015156102ca57805182526020820191506020810190506020830392506102a5565b6001836020036101000a03801982511681845116808217855250505050505090500182805190602001908083835b60208310151561031d57805182526020820191506020810190506020830392506102f8565b6001836020036101000a038019825116818451168082178552505050505050905001925050506040516020818303038152906040526040518082805190602001908083835b6020831015156103875780518252602082019150602081019050602083039250610362565b6001836020036101000a03801982511681845116808217855250505050505090500191505060405180910390209050600254600019168160001916141515610437576040517f08c379a000000000000000000000000000000000000000000000000000000000815260040180806020018281038252601d8152602001807f7061737365642070617373776f72647320646f65736e74206d6174636800000081525060200191505060405180910390fd5b3373ffffffffffffffffffffffffffffffffffffffff166108fc3073ffffffffffffffffffffffffffffffffffffffff16319081150290604051600060405180830381858888f19350505050158015610494573d6000803e3d6000fd5b505050505600a165627a7a72305820dcb90fc48044a35eebc003f73a57b9eb93fa0d4886b9720acf4947199198e4530029",
  "source": "pragma solidity ^0.4.6;\n\ncontract Remittance {\n\n    string bobPassword;\n    string carolPassword;\n    bytes32 passwordHash;\n\n    address owner;\n    // uint public amount;\n\n    constructor(string _bobPassword, string _carolPassword) public payable {\n        owner = msg.sender;\n        require(bytes(_bobPassword).length > 0, \"bob password is empty\");\n        require(bytes(_carolPassword).length > 0, \"carol password is empty\");\n        require(msg.value > 0, \"invalid amount to seed into contract\");\n        bobPassword = _bobPassword;\n        carolPassword = _carolPassword;\n        passwordHash = keccak256(abi.encodePacked(_bobPassword, carolPassword));\n\n        address(this).transfer(msg.value);\n    }\n\n    function remit(string _bobPassword, string _carolPassword) public payable {\n        require(address(this).balance > 0, \"contract doesnt have enough funds to remit\");\n        require(bytes(_bobPassword).length > 0, \"bob password is empty\");\n        require(bytes(_carolPassword).length > 0, \"carol password is empty\");\n        bytes32 passedPasswordsHash = keccak256(abi.encodePacked(_bobPassword, _carolPassword));\n        require(passedPasswordsHash == passwordHash, \"passed passwords doesnt match\");\n\n        msg.sender.transfer(address(this).balance);\n    }\n\n}\n",
  "sourcePath": "/home/mohanerra/ethereum-training/DAPPS/remittance/contracts/Remittance.sol",
  "compiler": {
    "name": "solc",
    "version": "0.4.24+commit.e67f0147.Emscripten.clang"
  },
  "schemaVersion": "2.0.1",
  "updatedAt": "2018-09-02T03:24:44.858Z"
}