{
  "contractName": "Remittance",
  "abi": [
    {
      "constant": true,
      "inputs": [],
      "name": "passwordHash",
      "outputs": [
        {
          "name": "",
          "type": "bytes32"
        }
      ],
      "payable": false,
      "stateMutability": "view",
      "type": "function"
    },
    {
      "inputs": [
        {
          "name": "_passwordHash",
          "type": "bytes32"
        }
      ],
      "payable": true,
      "stateMutability": "payable",
      "type": "constructor"
    },
    {
      "constant": false,
      "inputs": [
        {
          "name": "_bobPassword",
          "type": "string"
        },
        {
          "name": "_carolPassword",
          "type": "string"
        }
      ],
      "name": "remit",
      "outputs": [],
      "payable": true,
      "stateMutability": "payable",
      "type": "function"
    }
  ],
  "bytecode": "0x60806040526040516020806106ed8339810180604052810190808051906020019092919050505033600160006101000a81548173ffffffffffffffffffffffffffffffffffffffff021916908373ffffffffffffffffffffffffffffffffffffffff1602179055506000602060ff161115156100e3576040517f08c379a00000000000000000000000000000000000000000000000000000000081526004018080602001828103825260168152602001807f70617373776f7264206861736820697320656d7074790000000000000000000081525060200191505060405180910390fd5b600034111515610181576040517f08c379a00000000000000000000000000000000000000000000000000000000081526004018080602001828103825260248152602001807f696e76616c696420616d6f756e7420746f207365656420696e746f20636f6e7481526020017f726163740000000000000000000000000000000000000000000000000000000081525060400191505060405180910390fd5b80600081600019169055503073ffffffffffffffffffffffffffffffffffffffff166108fc349081150290604051600060405180830381858888f193505050501580156101d2573d6000803e3d6000fd5b505061050a806101e36000396000f30060806040526004361061004c576000357c0100000000000000000000000000000000000000000000000000000000900463ffffffff1680632f12313f14610051578063fbddd64414610084575b600080fd5b34801561005d57600080fd5b50610066610126565b60405180826000191660001916815260200191505060405180910390f35b610124600480360381019080803590602001908201803590602001908080601f0160208091040260200160405190810160405280939291908181526020018383808284378201915050505050509192919290803590602001908201803590602001908080601f016020809104026020016040519081016040528093929190818152602001838380828437820191505050505050919291929050505061012c565b005b60005481565b6000803073ffffffffffffffffffffffffffffffffffffffff16311115156101e2576040517f08c379a000000000000000000000000000000000000000000000000000000000815260040180806020018281038252602a8152602001807f636f6e747261637420646f65736e74206861766520656e6f7567682066756e6481526020017f7320746f2072656d69740000000000000000000000000000000000000000000081525060400191505060405180910390fd5b6000835111151561025b576040517f08c379a00000000000000000000000000000000000000000000000000000000081526004018080602001828103825260158152602001807f626f622070617373776f726420697320656d707479000000000000000000000081525060200191505060405180910390fd5b600082511115156102d4576040517f08c379a00000000000000000000000000000000000000000000000000000000081526004018080602001828103825260178152602001807f6361726f6c2070617373776f726420697320656d70747900000000000000000081525060200191505060405180910390fd5b82826040516020018083805190602001908083835b60208310151561030e57805182526020820191506020810190506020830392506102e9565b6001836020036101000a03801982511681845116808217855250505050505090500182805190602001908083835b602083101515610361578051825260208201915060208101905060208303925061033c565b6001836020036101000a038019825116818451168082178552505050505050905001925050506040516020818303038152906040526040518082805190602001908083835b6020831015156103cb57805182526020820191506020810190506020830392506103a6565b6001836020036101000a0380198251168184511680821785525050505050509050019150506040518091039020905060005460001916816000191614151561047b576040517f08c379a000000000000000000000000000000000000000000000000000000000815260040180806020018281038252601d8152602001807f7061737365642070617373776f72647320646f65736e74206d6174636800000081525060200191505060405180910390fd5b3373ffffffffffffffffffffffffffffffffffffffff166108fc3073ffffffffffffffffffffffffffffffffffffffff16319081150290604051600060405180830381858888f193505050501580156104d8573d6000803e3d6000fd5b505050505600a165627a7a72305820f4e3c4f5aa90adaa9c0bdb6928a72b386ba32600696c12cfb84ae1f8fc73b4b40029",
  "source": "pragma solidity ^0.4.6;\n\ncontract Remittance {\n\n    bytes32 public passwordHash;\n\n    address owner;\n\n    constructor(bytes32 _passwordHash) public payable {\n        owner = msg.sender;\n        require(_passwordHash.length > 0, \"password hash is empty\");\n        require(msg.value > 0, \"invalid amount to seed into contract\");\n        passwordHash = _passwordHash;\n\n        address(this).transfer(msg.value);\n    }\n\n    function remit(string _bobPassword, string _carolPassword) public payable {\n        require(address(this).balance > 0, \"contract doesnt have enough funds to remit\");\n        require(bytes(_bobPassword).length > 0, \"bob password is empty\");\n        require(bytes(_carolPassword).length > 0, \"carol password is empty\");\n        bytes32 computedPasswordsHash = keccak256(abi.encodePacked(_bobPassword, _carolPassword));\n        require(computedPasswordsHash == passwordHash, \"passed passwords doesnt match\");\n\n        msg.sender.transfer(address(this).balance);\n    }\n\n}\n",
  "sourcePath": "/home/mohanerra/ethereum-training/DAPPS/github/ethereumtraining-project2/contracts/Remittance.sol",
  "compiler": {
    "name": "solc",
    "version": "0.4.24+commit.e67f0147.Emscripten.clang"
  },
  "schemaVersion": "2.0.1",
  "updatedAt": "2018-09-09T14:09:59.419Z"
}